{
  "contractName": "TwoFactorAuth",
  "abi": [
    {
      "inputs": [
        {
          "internalType": "string",
          "name": "_email",
          "type": "string"
        },
        {
          "internalType": "string",
          "name": "_identifier",
          "type": "string"
        }
      ],
      "name": "addUser",
      "outputs": [],
      "stateMutability": "nonpayable",
      "type": "function"
    },
    {
      "inputs": [
        {
          "internalType": "string",
          "name": "_email",
          "type": "string"
        },
        {
          "internalType": "string",
          "name": "_identifier",
          "type": "string"
        }
      ],
      "name": "verifyIdentifier",
      "outputs": [
        {
          "internalType": "bool",
          "name": "",
          "type": "bool"
        }
      ],
      "stateMutability": "view",
      "type": "function",
      "constant": true
    }
  ],
  "bytecode": "0x608060405234801561001057600080fd5b5061077c806100206000396000f3fe608060405234801561001057600080fd5b50600436106100365760003560e01c8063079eaf341461003b57806373cf6ba814610057575b600080fd5b61005560048036038101906100509190610442565b610087565b005b610071600480360381019061006c9190610442565b610183565b60405161007e9190610585565b60405180910390f35b60008251116100cb576040517f08c379a00000000000000000000000000000000000000000000000000000000081526004016100c2906105c0565b60405180910390fd5b600081511161010f576040517f08c379a0000000000000000000000000000000000000000000000000000000008152600401610106906105a0565b60405180910390fd5b604051806040016040528083815260200182815250600083604051610134919061056e565b9081526020016040518091039020600082015181600001908051906020019061015e929190610337565b50602082015181600101908051906020019061017b929190610337565b509050505050565b600080600084604051610196919061056e565b90815260200160405180910390206040518060400160405290816000820180546101bf906106b6565b80601f01602080910402602001604051908101604052809291908181526020018280546101eb906106b6565b80156102385780601f1061020d57610100808354040283529160200191610238565b820191906000526020600020905b81548152906001019060200180831161021b57829003601f168201915b50505050508152602001600182018054610251906106b6565b80601f016020809104026020016040519081016040528092919081815260200182805461027d906106b6565b80156102ca5780601f1061029f576101008083540402835291602001916102ca565b820191906000526020600020905b8154815290600101906020018083116102ad57829003601f168201915b50505050508152505090506000836040516020016102e8919061056e565b604051602081830303815290604052805190602001208260200151604051602001610313919061056e565b60405160208183030381529060405280519060200120149050809250505092915050565b828054610343906106b6565b90600052602060002090601f01602090048101928261036557600085556103ac565b82601f1061037e57805160ff19168380011785556103ac565b828001600101855582156103ac579182015b828111156103ab578251825591602001919060010190610390565b5b5090506103b991906103bd565b5090565b5b808211156103d65760008160009055506001016103be565b5090565b60006103ed6103e884610611565b6105e0565b90508281526020810184848401111561040557600080fd5b610410848285610674565b509392505050565b600082601f83011261042957600080fd5b81356104398482602086016103da565b91505092915050565b6000806040838503121561045557600080fd5b600083013567ffffffffffffffff81111561046f57600080fd5b61047b85828601610418565b925050602083013567ffffffffffffffff81111561049857600080fd5b6104a485828601610418565b9150509250929050565b6104b781610668565b82525050565b60006104c882610641565b6104d2818561065d565b93506104e2818560208601610683565b80840191505092915050565b60006104fb601a8361064c565b91507f4964656e7469666965722063616e6e6f7420626520656d7074790000000000006000830152602082019050919050565b600061053b60158361064c565b91507f456d61696c2063616e6e6f7420626520656d70747900000000000000000000006000830152602082019050919050565b600061057a82846104bd565b915081905092915050565b600060208201905061059a60008301846104ae565b92915050565b600060208201905081810360008301526105b9816104ee565b9050919050565b600060208201905081810360008301526105d98161052e565b9050919050565b6000604051905081810181811067ffffffffffffffff8211171561060757610606610717565b5b8060405250919050565b600067ffffffffffffffff82111561062c5761062b610717565b5b601f19601f8301169050602081019050919050565b600081519050919050565b600082825260208201905092915050565b600081905092915050565b60008115159050919050565b82818337600083830152505050565b60005b838110156106a1578082015181840152602081019050610686565b838111156106b0576000848401525b50505050565b600060028204905060018216806106ce57607f821691505b602082108114156106e2576106e16106e8565b5b50919050565b7f4e487b7100000000000000000000000000000000000000000000000000000000600052602260045260246000fd5b7f4e487b7100000000000000000000000000000000000000000000000000000000600052604160045260246000fdfea2646970667358221220d60d04d54955fa5413a14d8c4c1c75e8fc71523bb1fd8990472ea37aa56eda8b64736f6c63430008000033",
  "immutableReferences": {},
  "source": "// SPDX-License-Identifier: MIT\r\npragma solidity ^0.8.0;\r\n\r\ncontract TwoFactorAuth {\r\n    struct User {\r\n        string email;\r\n        string identifier;\r\n    }\r\n\r\n    mapping(string => User) private usersCodes;\r\n\r\n    function addUser(string memory _email, string memory _identifier) public {\r\n        require(bytes(_email).length > 0, \"Email cannot be empty\");\r\n        require(bytes(_identifier).length > 0, \"Identifier cannot be empty\");\r\n\r\n        usersCodes[_email] = User(_email, _identifier);\r\n    }\r\n\r\n    function verifyIdentifier(string memory _email, string memory _identifier) public view returns (bool) {\r\n        User memory user = usersCodes[_email];\r\n\r\n        bool success = keccak256(abi.encodePacked(user.identifier)) == keccak256(abi.encodePacked(_identifier));\r\n\r\n        return success;\r\n    }\r\n}\r\n",
  "sourcePath": "C:\\Projects\\densulyk-server\\truffle\\contracts\\TwoFactorAuth.sol",
  "compiler": {
    "name": "solc",
    "version": "0.8.0+commit.c7dfd78e.Emscripten.clang"
  },
  "schemaVersion": "3.4.16",
  "updatedAt": "2024-05-25T15:55:24.004Z",
  "networkType": "ethereum",
  "devdoc": {
    "kind": "dev",
    "methods": {},
    "version": 1
  },
  "userdoc": {
    "kind": "user",
    "methods": {},
    "version": 1
  }
}