{
  "contractName": "TwoFactorAuth",
  "abi": [
    {
      "anonymous": false,
      "inputs": [
        {
          "indexed": true,
          "internalType": "address",
          "name": "user",
          "type": "address"
        }
      ],
      "name": "SecretSet",
      "type": "event"
    },
    {
      "inputs": [
        {
          "internalType": "address",
          "name": "",
          "type": "address"
        }
      ],
      "name": "userSecrets",
      "outputs": [
        {
          "internalType": "uint256",
          "name": "",
          "type": "uint256"
        }
      ],
      "stateMutability": "view",
      "type": "function"
    },
    {
      "inputs": [
        {
          "internalType": "uint256",
          "name": "secret",
          "type": "uint256"
        }
      ],
      "name": "setUserSecret",
      "outputs": [],
      "stateMutability": "nonpayable",
      "type": "function"
    },
    {
      "inputs": [
        {
          "internalType": "uint256",
          "name": "code",
          "type": "uint256"
        }
      ],
      "name": "verifyCode",
      "outputs": [
        {
          "internalType": "bool",
          "name": "",
          "type": "bool"
        }
      ],
      "stateMutability": "view",
      "type": "function"
    }
  ],
  "bytecode": "0x608060405234801561001057600080fd5b506103b1806100206000396000f3fe608060405234801561001057600080fd5b50600436106100415760003560e01c80630b32b2801461004657806363bbda8214610062578063bc1b849814610092575b600080fd5b610060600480360381019061005b919061024c565b6100c2565b005b61007c60048036038101906100779190610223565b61014b565b60405161008991906102e0565b60405180910390f35b6100ac60048036038101906100a7919061024c565b610163565b6040516100b991906102c5565b60405180910390f35b806000803373ffffffffffffffffffffffffffffffffffffffff1673ffffffffffffffffffffffffffffffffffffffff168152602001908152602001600020819055503373ffffffffffffffffffffffffffffffffffffffff167fa1bf2b98071fd2754919c95e1b3f2211168baccab7e811579129a46cbe8e653160405160405180910390a250565b60006020528060005260406000206000915090505481565b60008060003373ffffffffffffffffffffffffffffffffffffffff1673ffffffffffffffffffffffffffffffffffffffff168152602001908152602001600020546040516020016101b491906102aa565b60405160208183030381529060405280519060200120826040516020016101db91906102aa565b60405160208183030381529060405280519060200120149050919050565b6000813590506102088161034d565b92915050565b60008135905061021d81610364565b92915050565b60006020828403121561023557600080fd5b6000610243848285016101f9565b91505092915050565b60006020828403121561025e57600080fd5b600061026c8482850161020e565b91505092915050565b61027e8161030d565b82525050565b61028d81610339565b82525050565b6102a461029f82610339565b610343565b82525050565b60006102b68284610293565b60208201915081905092915050565b60006020820190506102da6000830184610275565b92915050565b60006020820190506102f56000830184610284565b92915050565b600061030682610319565b9050919050565b60008115159050919050565b600073ffffffffffffffffffffffffffffffffffffffff82169050919050565b6000819050919050565b6000819050919050565b610356816102fb565b811461036157600080fd5b50565b61036d81610339565b811461037857600080fd5b5056fea2646970667358221220aeb25d6da1b6e7010853055cf7dbd06e927b0bb9c5c8dc83f824321a197b3e1664736f6c63430008000033",
  "immutableReferences": {},
  "source": "pragma solidity ^0.8.0;\r\n\r\ncontract TwoFactorAuth {\r\n    mapping(address => uint) public userSecrets;\r\n\r\n    event SecretSet(address indexed user);\r\n\r\n    function setUserSecret(uint secret) public {\r\n        userSecrets[msg.sender] = secret;\r\n        emit SecretSet(msg.sender);\r\n    }\r\n\r\n    function verifyCode(uint code) public view returns (bool) {\r\n        return (keccak256(abi.encodePacked(code)) == keccak256(abi.encodePacked(userSecrets[msg.sender])));\r\n    }\r\n}\r\n",
  "sourcePath": "C:\\Projects\\densulyk-server\\contracts\\TwoFactorAuth.sol",
  "compiler": {
    "name": "solc",
    "version": "0.8.0+commit.c7dfd78e.Emscripten.clang"
  },
  "schemaVersion": "3.4.16",
  "updatedAt": "2024-05-19T16:58:05.100Z",
  "devdoc": {
    "kind": "dev",
    "methods": {},
    "version": 1
  },
  "userdoc": {
    "kind": "user",
    "methods": {},
    "version": 1
  }
}